S0150000776561725F6465746563746F722E73726563A7
S11300000C949A010C94D6120C94ED120C94B70132
S11300100C94B7010C94B7010C94B7010C94B7017C
S11300200C94B7010C94B7010C94B7010C94FE1115
S11300300C94B7010C94B7010C94AD110C94B70156
S11300400C94B7010C94B7010C943A120C94B701B8
S11300500C94B7010C94B7010C94B7010C94B7013C
S11300600C94B7010C94B7010C94B7010C94B7012C
S11300700C9488120C94B7010C94B7010C94B7013A
S11300800C94B7010C94B7010C94B7010C94B7010C
S11300900C94B7010C94B7010C94B7010C94B701FC
S11300A00C94B7010C94B7010C94B7010C94B701EC
S11300B00C94B7014149322B534552564F3D0041F0
S11300C049322B4E53454E534F52533D0041493212
S11300D02B4441544554494D453D004149322B4937
S11300E0445245433D004149322B49444445543D23
S11300F0004149322B504552494F443D0041493259
S11301002B42544F46460D0A0A004149322B4545BD
S113011050524F4D524541443F0D0A0A0041493265
S11301202B454550524F4D52455345540D0A0A0034
S11301304149322B4441544554494D453F0D0A0A27
S1130140004149322B444154413F0D0A0A004149C0
S1130150322B504E3F0D0A0A004149322B4944527A
S113016045433F0D0A0A004149322B494444455452
S11301703F0D0A0A00224F686D69616A65203220CA
S1130180456D69736F722200224F686D69616A65FB
S1130190203120456D69736F722200224E697665A5
S11301A06C20646520426174657269612200224595
S11301B0737461646F20646520646573676173742C
S11301C065220022686F7261206465206461746135
S11301D0202868683A6D6D20612E6D2E2F702E6D6B
S11301E02E292200226665636861206465206461AB
S11301F074612864642F6D6D2F79797979292200CF
S113020022506572696F646F2028646961732922C2
S1130210002269642064656C207265636570746F84
S11302207228616C66616E756D657269636F2922EF
S1130230002269642064656C20656D69736F7222A5
S1130240002270617274206E756D6265722057654C
S113025069722200224F686D69616A652032204507
S11302606D69736F722200224F686D69616A65203F
S11302703120456D69736F722200224E6976656C78
S113028020646520426174657269612200224573AD
S11302907461646F20646520646573676173746559
S11302A0220022686F726120646520646174612099
S11302B02868683A6D6D20612E6D2E2F702E6D2E7C
S11302C02922002266656368612064652064617484
S11302D0612864642F6D6D2F797979792922002240
S11302E0506572696F646F20286469617329220004
S11302F02269642064656C207265636570746F7232
S113030028616C66616E756D657269636F29220080
S11303102269642064656C20656D69736F722200C4
S11303202270617274206E756D6265722057656902
S11303307222000011241FBECFEFD8E0DEBFCDBF74
S113034012E0A0E0B1E0EEECF9E402C005900D92F9
S1130350A43DB107D9F727E0A4EDB2E001C01D9296
S1130360A539B207E1F70E9463110C94E5240C94BB
S1130370000088B1826088B9089588B18D7F88B9FA
S11303800895CF93DF9300D000D000D0CDB7DEB76F
S113039085E089831B8283E08A831D821C821E82FE
S11303A0CE0101960E94ED14EEE7F0E080818564B1
S11303B08083808188688083EAE7F0E080818064BC
S11303C0808380917A0084FFFCCFEAE7F0E08081AB
S11303D08061808326960FB6F894DEBF0FBECDBF32
S11303E0DF91CF91089587B1826087B988B18D7FFD
S11303F088B90E94C10108951092E602089580E030
S11304000DC0E82FF0E0EE0FFF1FEE0FFF1FE351CA
S1130410FD4F10821182128213828F5F833088F322
S113042008950E94FC010E94FF01EAE7F0E0808148
S11304308064808380917A0084FFFCCFEAE7F0E057
S11304408081806180830895CF93209178003091DA
S11304507900E091E602F0E0EE0FFF1FEE0FFF1FC0
S1130460E351FD4F80819181A281B381820F931F5B
S1130470A11DB11D80839183A283B3838091E60281
S11304808F5F8093E6028091E602833020F0109221
S1130490E602C1E001C0C0E0E091E602F0E0EF5EF8
S11304A0FE4F80810E9437158C2FCF91089520E054
S11304B023C0822F90E0DC01AA0FBB1FAA0FBB1F31
S11304C0A351BD4F4D915D916D917C9113976894AB
S11304D014F876956795579547951694D1F7880F34
S11304E0991FFC01E951FD4F518340831D921D92D8
S11304F01D921C9213972F5F2330D8F20895EAE7D8
S1130500F0E080818064808380917A0084FFFCCF56
S113051008951092E5021092E40215C00E947F0231
S11305206AE070E080E090E00E9464150E9424027A
S11305308823A1F38091E4029091E50201969093BF
S1130540E5028093E4028091E4029091E5028097B1
S113055028F308958F929F92AF92BF92CF92DF9229
S1130560EF92FF926091E7027091E80280E090E0E0
S11305700E949E202DEC3CEC4CE85FE30E94552148
S113058020E030E040E85AE30E9455216B017C01F1
S113059020E030E04AE754E40E9455214B015C011D
S11305A0A70196016DEC7CEC8CE490E40E948B1F17
S11305B09B01AC01C501B4010E94FD1F6B017C01CC
S11305C020E030E04AE754E40E94502118166CF40D
S11305D080E090E0AAE7B4E48093E0029093E10223
S11305E0A093E202B093E3021AC020E030E0A90134
S11305F0C701B6010E94F81F88234CF41092E00250
S11306001092E1021092E2021092E30208C0C0923A
S1130610E002D092E102E092E202F092E302FF9063
S1130620EF90DF90CF90BF90AF909F908F90089500
S11306308F929F92AF92BF92CF92DF92EF92FF92EE
S11306406091E9027091EA0280E090E00E949E20AD
S11306502DEC3CEC4CE85FE30E94552120E030E0B7
S113066040E85AE30E9455216B017C0120E030E010
S11306704AE754E40E9455214B015C01A70196010D
S11306806DEC7CEC8CE490E40E948B1F9B01AC012C
S1130690C501B4010E94FD1F6B017C0120E030E024
S11306A04AE754E40E94502118166CF480E090E06C
S11306B0AAE7B4E48093DC029093DD02A093DE0207
S11306C0B093DF021AC020E030E0A901C701B601EF
S11306D00E94F81F88234CF41092DC021092DD0271
S11306E01092DE021092DF0208C0C092DC02D092A7
S11306F0DD02E092DE02F092DF02FF90EF90DF90E5
S1130700CF90BF90AF909F908F900895CF92DF923B
S1130710EF92FF926091EB027091EC0280E090E026
S11307200E949E202DEC3CEC4CE85FE30E94552196
S113073020E030E040E85AE30E94552129E53AEFF1
S113074040E55EE30E94FD1F6093D8027093D902D6
S11307508093DA029093DB0220E030E040E450E43E
S11307600E948B1F20E030E048EC52E40E945521A7
S11307702CEC3CEC4CEC5FE30E94FD1F6B017C0114
S113078020E030E048EC52E40E94502118166CF44A
S113079080E090E0A8ECB2E48093D4029093D50278
S11307A0A093D602B093D7021AC020E030E0A9018A
S11307B0C701B6010E94F81F88234CF41092D4029A
S11307C01092D5021092D6021092D70208C0C0929D
S11307D0D402D092D502E092D602F092D702FF90D2
S11307E0EF90DF90CF9008956091E0027091E10264
S11307F08091E2029091E30208956091DC0270918D
S1130800DD028091DE029091DF0208956091D402AE
S11308107091D5028091D6029091D7020895CF931A
S1130820DF93CDB7DEB72B970FB6F894DEBF0FBEBC
S1130830CDBF80E096E9A0E0B0E08A839B83AC83DF
S1130840BD8383E088871A86198681E089838E8335
S11308501F821B86CE0101960E94D71A2B960FB6D3
S1130860F894DEBF0FBECDBFDF91CF91089584B160
S1130870816084B985B18E7F85B98AB180648AB973
S11308808BB18F7B8BB90E940F0408958BB1806468
S11308908BB908958BB18F7B8BB90895BC0181E02E
S11308A00E946B1B0895EF92FF920F931F93CF93B7
S11308B0DF93EC0108E713E08BE7F801808361E440
S11308C072E089E793E00E94E4210F2EFAE3FF2E01
S11308D0F02DF801F38A688179818CE893E00E9415
S11308E0F421E881F981DF010D900020E9F71197E7
S11308F08D010E1B1F0BF801E457FC4F0F2EFCE279
S1130900EF2EF02DE08261E372E0C80183579C4F23
S11309100E94E421F801E456FC4FF0820B5D1F4F66
S11309206A817B81C80188589C4F0E94F421AA8166
S1130930BB81FD0101900020E9F73197EA1BFB0B15
S11309400E0F1F1FF801E858FC4FE08261E172E0CE
S1130950C80187589C4F0E94E421F801E856FC4FD7
S1130960F0820F5D1F4F6C817D81C80188589C4FB8
S11309700E94F421AC81BD81FD0101900020E9F7C2
S11309803197EA1BFB0B0E0F1F1FF801E858FC4FB1
S1130990E08260E072E0C80187589C4F0E94E42125
S11309A0F801E757FC4FF0820E5E1F4F6E817F8186
S11309B0C80188589C4F0E94F421AE81BF81FD017B
S11309C001900020E9F73197EA1BFB0B0E0F1F1F64
S11309D0F801E858FC4FE08264EE71E0C8018758E2
S11309E09C4F0E94E421F801EC56FC4FF082035E18
S11309F01F4F68857985C80188589C4F0E94F4214F
S1130A00A885B985FD0101900020E9F73197EA1B1B
S1130A10FB0B0E0F1F1FF801E858FC4FE08263EC3C
S1130A2071E0C80187589C4F0E94E421F801E75601
S1130A30FC4FF0820E5D1F4F6A857B85C801885884
S1130A409C4F0E94F421AA85BB85FD0101900020E2
S1130A50E9F73197EA1BFB0B0E0F1F1FF801E8584B
S1130A60FC4FE0826EEA71E0C80187589C4F0E94F7
S1130A70E421F801E357FC4FF0820A5E1F4F6C85B6
S1130A807D85C80188589C4F0E94F421AC85BD85A2
S1130A90FD0101900020E9F73197EA1BFB0B0E0FD3
S1130AA01F1FF801E858FC4FE0826BE971E0C801B0
S1130AB087589C4F0E94E421F801E557FC4FF082CF
S1130AC00C5E1F4F6E857F85C80188589C4F0E941D
S1130AD0F421AE85BF85FD0101900020E9F731972F
S1130AE0EA1BFB0B0E0F1F1FF801E858FC4FE082B6
S1130AF068E871E0C80187589C4F0E94E421F8011E
S1130B00E557FC4FF0820C5E1F4F68897989C80154
S1130B1088589C4F0E94F421E889F989DF010D90DF
S1130B200020E9F71197AE1BBF0B0A0F1B1FF8013A
S1130B30E858FC4FE08265E771E0C80187589C4F94
S1130B400E94E421F801E557FC4FF0820C5E1F4F30
S1130B506A897B89C80188589C4F0E94F421EA89DC
S1130B60FB89DF010D900020E9F71197AE1BBF0B45
S1130B700A0F1B1FD801A858BC4F85E0EDE4F1E033
S1130B8001900D928A95E1F7DF91CF911F910F911A
S1130B90FF90EF90089568E773E081E00E946B1B7B
S1130BA008950F931F93CF93DF931F92CDB7DEB7B2
S1130BB01982CE0101960E94C807082F813021F1C5
S1130BC08981853110F084E1898310E013C080E9C4
S1130BD091E0189FB001199F700D11246A5D7F4F39
S1130BE088E793E00E94E107082F811106C00E9464
S1130BF0CB051F5F8981181750F38981811104C0C7
S1130C0082E591E00E944E04802F0F90DF91CF91F6
S1130C101F910F9108958091CE00E9ECF0E080815E
S1130C20806880838081806180830895E9ECF0E0AE
S1130C3080818F7E808380818F77808308950E9456
S1130C4016060E948E1B0E94A81B6EE471E08AE5C2
S1130C5093E00E94E4218AE593E00E94121C882319
S1130C6011F081E0089580E008950E9416060E9424
S1130C708E1B0E94A81B67E671E08AE593E00E9440
S1130C80E4218AE593E00E94121C882311F081E09C
S1130C90089580E008950E9416060E948E1B0E940B
S1130CA0A81B69E571E08AE593E00E94E4218AE5E6
S1130CB093E00E94121C882311F081E0089580E0E3
S1130CC008950E9416060E948E1B0E94A81B61E4D0
S1130CD071E08AE593E00E94E4218AE593E00E94B2
S1130CE0121C882311F081E0089580E008950E9489
S1130CF016060E948E1B0E94A81B60E371E08AE521
S1130D0093E00E94E4218AE593E00E94121C882368
S1130D1011F081E0089580E008950E9416060E9473
S1130D208E1B0E94A81B6AE071E08AE593E00E9492
S1130D30E4218AE593E00E94121C882311F081E0EB
S1130D40089580E008950E9416060E948E1B0E945A
S1130D50A81B6DE171E08AE593E00E94E4218AE535
S1130D6093E00E94121C882311F081E0089580E032
S1130D7008950E9416060E948E1B0E94A81B6DEF08
S1130D8070E08AE593E00E94E4218AE593E00E9402
S1130D90121C882311F081E0089580E008950E94D8
S1130DA016060E948E1B0E94A81B61EF70E08AE564
S1130DB093E00E94E4218AE593E00E941D1C8823AD
S1130DC011F081E0089580E008950E9416060E94C3
S1130DD08E1B0E94A81B66EE70E08AE593E00E94D9
S1130DE0E4218AE593E00E941D1C882311F081E030
S1130DF0089580E008950E9416060E948E1B0E94AA
S1130E00A81B6BED70E08AE593E00E94E4218AE57B
S1130E1093E00E941D1C882311F081E0089580E076
S1130E2008950E9416060E948E1B0E94A81B6FEB59
S1130E3070E08AE593E00E94E4218AE593E00E9451
S1130E401D1C882311F081E0089580E008950E941C
S1130E5016060E948E1B0E94A81B64EB70E08AE5B4
S1130E6093E00E94E4218AE593E00E941D1C8823FC
S1130E7011F081E0089580E008950E9416060E9412
S1130E808E1B0E94A81B6DEC70E08AE593E00E9423
S1130E90E4218AE593E00E941D1C882311F081E07F
S1130EA0089580E008959C0141E050E060E070E026
S1130EB080E50E948A1308959C0141E050E061E0BE
S1130EC070E080E50E948A1308959C0141E050E09F
S1130ED063E070E080E50E948A1308959C014AE073
S1130EE050E06FE070E080E50E948A1308959C0151
S1130EF04BE050E069E170E080E50E948A130895B8
S1130F009C0141E050E064E270E080E50E948A13B5
S1130F1008959C0141E050E065E270E080E50E94A4
S1130F208A1308959C0141E050E060E070E080E5A0
S1130F300E94721408959C0141E050E061E070E069
S1130F4080E50E94721408959C0141E050E063E042
S1130F5070E080E50E94721408959C014BE050E01B
S1130F6064E070E080E50E94721408959C014AE0F8
S1130F7050E06FE070E080E50E94721408959C01D7
S1130F804BE050E069E170E080E50E94721408953E
S1130F909C0141E050E064E270E080E50E9472143C
S1130FA008959C0141E050E065E270E080E50E9414
S1130FB0721408959C0140E951E080E50E948A136F
S1130FC008959C0140E951E080E50E94721408955F
S1130FD00F931F93CF93DF931F92CDB7DEB7198280
S1130FE0CE0101960E948007813001F1CE01019665
S1130FF00E9489078130D1F000E010E014C080E93C
S113100091E0089FB001099F700D189F700D112485
S11310106A5D7F4F40E951E080E50E94051481300C
S113102029F00F5F1F4F0431110548F30F90DF9132
S1131030CF911F910F910895CF93DF93EC0189EF26
S113104092E00E94C807813099F18AEF92E00E94F1
S1131050D107813069F12091FA0280E991E0289F5B
S1131060B001299F700D11246A5D7F4FCE010E944B
S1131070DA078130E9F08091FA028F5F8093FA02F7
S1131080843110F01092FA028091F9028F5F8093FC
S1131090F902843118F084E18093F9028AEF92E036
S11310A00E948907813021F089EF92E00E94800735
S11310B0DF91CF910895E9E6F0E080818E7F80830F
S11310C080818D7F80838DB38E7F8DBB08958CB39B
S11310D081608CBB8DB381608DBB08958DB38E7F91
S11310E08DBB0895E9E6F0E080818B7F8083808169
S11310F0877F80838DB38D7F8DBB08958CB3826091
S11311008CBB8DB382608DBB08958DB38D7F8DBBF9
S113111008958AB1877F8AB98BB188608BB90895A5
S1131120CF93DF9300D000D0CDB7DEB782E08983C0
S11311301C82CE0101960E9426190F900F900F90E9
S11311400F90DF91CF91089584B1826084B985B105
S11311508D7F85B9089585B1826085B90895ECEBDA
S1131160F0E080818B7F808385B18D7F85B9089580
S1131170CF92DF92EF92FF920F931F93CF9387E06A
S113118091E00E949B07813009F476C184E091E0EC
S11311900E94A407813009F46FC183E595E00E94A1
S11311A0AD07813009F468C180E495E00E94B60778
S11311B0813009F461C1E0E4F5E0878190E0AC019D
S11311C040535109268130E0C901C097BC01660F24
S11311D0771F9C01220F331F220F331F220F331F4F
S11311E0CB01820F931F840F951F90930601809368
S11311F0050184E195E00E94BF07C82F813009F4FE
S11312003BC1809104011F928F938DE691E09F93DF
S11312108F930EE415E01F930F930E94FB21F801B6
S11312201482EAE0F3E082813181208190E08053EE
S1131230984F9F938F931F923F931F922F9384E70E
S113124091E09F938F930FE115E01F930F930E94FA
S1131250FB21F8011486809109032DB73EB7205F66
S11312603F4F0FB6F8943EBF0FBE2DBF81111BC078
S1131270E6E0F3E0918180811F929F931F928F9308
S113128085E891E09F938F938EE595E09F938F93EC
S11312900E94FB218DB79EB708960FB6F8949EBFA7
S11312A00FBE8DBF1AC0E6E0F3E0918180811F92EA
S11312B09F931F928F9386E991E09F938F938EE57E
S11312C095E09F938F930E94FB21EDB7FEB738966C
S11312D00FB6F894FEBF0FBEEDBF10926A05809161
S11312E003011F928F9387EA91E09F938F930AE4FF
S11312F015E01F930F930E94FB21F8011382E0E095
S1131300F3E085818F9384818F938CEA91E09F939E
S11313108F930EE015E01F930F930E94FB21F801B9
S11313201582809107012DB73EB7245F3F4F0FB65A
S1131330F8943EBF0FBE2DBF813021F5E0E0F3E00D
S113134081818F9380818F938CEA91E09F938F9317
S11313500CE615E01F930F930E94FB21F801158200
S113136086E0E3EBF1E0A8E0B5E001900D928A9508
S1131370E1F710920D050F900F900F900F900F90C2
S11313800F904EC0809107018230A1F50F2EF0E03E
S1131390EF2EF3E0FF2EF02DF70181818F938081F2
S11313A08F930CEA11E01F930F930F2EFCE6CF2EC0
S11313B0F5E0DF2EF02DDF92CF920E94FB21F601A3
S11313C01582F70183818F9382818F931F930F93EB
S11313D008E015E01F930F930E94FB21F80115828A
S11313E02DB73EB7245F3F4F0FB6F8943EBF0FBEF4
S11313F02DBF16C086E0E9EBF1E0ACE6B5E0019064
S11314000D928A95E1F71092710586E0E9EBF1E01F
S1131410A8E0B5E001900D928A95E1F710920D05D0
S1131420ECE2F5E083E595E09183808380E495E048
S11314309383828384E195E0958384838EE495E0AD
S1131440978386838FE195E0918780878EE595E089
S1131450938782878AE495E0958784878EE095E078
S1131460978786878CE695E0918B808B88E095E062
S1131470938B828B8C2F00C0CF911F910F91FF9083
S1131480EF90DF90CF900895CF930E94FF16C82F5E
S11314908AE093E00E9462178C2FCF910895CF9336
S11314A00E942D16C82F86E093E00E9451178C2FBE
S11314B0CF9108950F931F93CF930E94440A8130D4
S11314C0F1F00E944F0AC82F8130C9F00E94F40342
S11314D00E946F2000E013E0F801718360830E9492
S11314E0FD030E946F20F801738362830E94060447
S11314F00E946F20F801758364838C2F00C0CF9104
S11315001F910F910895CF93DF93CDB7DEB727973F
S11315100FB6F894DEBF0FBECDBF1B8282E08C8372
S11315208EE389831A821D821E821F82CE01019658
S11315300E94961827960FB6F894DEBF0FBECDBF53
S1131540DF91CF91089580B7806880BF80B78F7B8B
S113155080BF0E94A4080E94F3010E9489080E948F
S11315605B080E9472080E9490080E94071E0E9455
S113157037040E94830A0E94791D2FEF84E39CE0C4
S1131580215080409040E1F700C000007894089515
S1131590F894809112039091130391609093130334
S11315A0809312037894EEE6F0E080818260808379
S11315B085B3826085BB85B58B7F85BD85B583602A
S11315C085BD089585B5887F85BD85B3826085BB5B
S11315D0EEE6F0E080818D7F808308950E94110201
S11315E00E9489020E9457020E94AA020E941803C4
S11315F00E94860308956091000370910103809115
S1131600FD02811113C080E090E00E949E2020E042
S113161030E843E953E40E94F81F181624F081E0EF
S11316208093FF0217C01092FF0214C0813091F41E
S113163080E090E00E949E2020E030E046E953E400
S11316400E94502188231CF01092FF0203C081E005
S11316508093FF028091FF028093FD02813019F490
S1131660109203010895811103C082E08093030165
S11316700895CF93DF93E0E0F3E060817181C2814C
S1131680D3818091FC02811113C080E090E00E941C
S11316909E2020E030E843E953E40E94F81F181626
S11316A024F081E08093FF0215C01092FF0212C063
S11316B080E090E00E949E2020E030E046E953E480
S11316C00E94502188231CF01092FF0203C081E085
S11316D08093FF028091FB02811114C0BE0180E05F
S11316E090E00E949E2020E030E843E953E40E9409
S11316F0F81F181624F081E08093FE0216C01092A1
S1131700FE0213C0BE0180E090E00E949E2020E013
S113171030E046E953E40E94502188231CF01092E3
S1131720FE0203C081E08093FE028091FF02809359
S1131730FC029091FE029093FB02813029F49130D7
S113174019F4109203010AC0813029F4911103C0E5
S11317508093030103C082E080930301DF91CF9162
S11317600895CF9387E091E00E949B07C82F8130B2
S113177069F080910701813019F40E94FB0A06C0C8
S113178080910701823011F40E94390B8C2FCF9184
S1131790089580910403909105038E31910518F406
S11317A021E020930201839710F010920201089522
S11317B0CF93DF9380910201813049F0809103013E
S11317C0882341F0813049F4C8EED3E008C0CBE36C
S11317D0D4E005C0C0EAD1E002C0CEEED2E0CE0132
S11317E00E94911D0E94961DD0930101C093000197
S11317F0809112039091130382FFFACFDF91CF916E
S11318000895CF930E94C80A0E94AB0868EE73E063
S113181080E090E00E9464150E94B90164EF71E0D9
S113182080E090E00E9464150E94EE0A0E94BD01CF
S113183064EF71E080E090E00E9464150E945A0A0F
S1131840C82F813061F40E94AF0868EE73E080E035
S113185090E00E9464150E94E20A8C2F60C00E94EE
S1131860B10BC82F813061F40E94AF0868EE73E0B9
S113187080E090E00E9464150E94E20A8C2F4FC021
S113188088E091E00E949207C82F813061F40E94A1
S1131890AF0868EE73E080E090E00E9464150E9457
S11318A0E20A8C2F3CC0809108018130A1F40E948F
S11318B0C90B0E94D71D64EF71E080E090E00E94A4
S11318C064150E94D80B0E94DB1D64EF71E080E078
S11318D090E00E9464150E94B8088CE295E00E9492
S11318E0101E0E94881F0E941C08C82F813061F4BA
S11318F00E94AF0868EE73E080E090E00E946415F7
S11319000E94E20A8C2F0BC00E94AF0868EE73E0BD
S113191080E090E00E9464150E94E20A8C2FCF912F
S11319200895CF930E94C80A0E94AB0868EE73E042
S113193080E090E00E9464150E942718C82F81302F
S113194021F40E94E20A8C2F83C00E94B90164EF43
S113195071E080E090E00E9464150E94EE0A0E940B
S1131960BD0164EF71E080E090E00E9464150E9484
S11319705A0AC82F813061F40E94AF0868EE73E000
S113198080E090E00E9464150E94E20A8C2F60C0FF
S11319900E94B10BC82F813061F40E94AF0868EE39
S11319A073E080E090E00E9464150E94E20A8C2FAC
S11319B04FC088E091E00E949207C82F813061F403
S11319C00E94AF0868EE73E080E090E00E94641526
S11319D00E94E20A8C2F3CC0809108018130A1F45E
S11319E00E94C90B0E94D71D64EF71E080E090E073
S11319F00E9464150E94D80B0E94DB1D64EF71E005
S1131A0080E090E00E9464150E94B8088CE295E0A2
S1131A100E94101E0E94881F0E941C08C82F81303B
S1131A2061F40E94AF0868EE73E080E090E00E94E9
S1131A3064150E94E20A8C2F0BC00E94AF0868EE66
S1131A4073E080E090E00E9464150E94E20A8C2F0B
S1131A50CF910895CF930E94B90164EF71E080E0C3
S1131A6090E00E9464150E94EE0A0E94BD0164EF9A
S1131A7071E080E090E00E9464150E945A0A81306F
S1131A8069F10E94B10B813049F188E091E00E9434
S1131A909207C82F813011F1809108018130A1F49F
S1131AA00E94C90B0E94D71D64EF71E080E090E0B2
S1131AB00E9464150E94D80B0E94DB1D64EF71E044
S1131AC080E090E00E9464150E94B8088CE295E0E2
S1131AD00E9453040E94CB058C2F00C0CF9108951F
S1131AE0CF9384E091E00E94A407813039F1809182
S1131AF00401C8E18C9FC02D112487E00E945D1869
S1131B008130E1F00E9427188130C1F00E94FC1757
S1131B108130A1F00E94A617813081F08C2F0E94A1
S1131B206F17813059F084E00E945218813031F0EF
S1131B300E947A17813011F00E94D117CF91089535
S1131B40EF92FF920F931F93CF93DF93CDB7DEB73E
S1131B506E970FB6F894DEBF0FBECDBF0E940F0480
S1131B600E94C80A0E94AB0868EE73E080E090E02F
S1131B700E9464150E94460464EF71E080E090E0E6
S1131B800E94641591E010E01CC30E947C1B0E941B
S1131B900B0640E65AEE60E070E080E094E00E94BC
S1131BA0B81B90E0882309F40CC30E9461068823C3
S1131BB0E1F00E942A0D182F813009F0F3C20E942F
S1131BC016060E944A0464EF71E080E090E00E94EF
S1131BD064150E94AF0868EE73E080E090E00E9414
S1131BE064150E94E20A812F03C30E9435068823EC
S1131BF021F1CE0101960E94B607182F8130B1F46D
S1131C000E9416060E944A0464EF71E080E090E0AE
S1131C100E9464150E94AF0868EE73E080E090E0D3
S1131C200E9464150E94E20A812FE2C21986CE0145
S1131C3002960E944E0491E0C4C20E944B0688237F
S1131C4021F1CE0101960E94BF07182F8130B1F413
S1131C500E9416060E944A0464EF71E080E090E05E
S1131C600E9464150E94AF0868EE73E080E090E083
S1131C700E9464150E94E20A812FBAC21A86CE011C
S1131C8002960E944E0491E09CC20E941F06882383
S1131C9021F1CE0101960E94AD07182F8130B1F4D5
S1131CA00E9416060E944A0464EF71E080E090E00E
S1131CB00E9464150E94AF0868EE73E080E090E033
S1131CC00E9464150E94E20A812F92C21A86CE01F4
S1131CD002960E944E0491E074C20E947706882303
S1131CE009F4A3C00E94440A182F8130B1F40E9461
S1131CF016060E944A0464EF71E080E090E00E94BE
S1131D0064150E94AF0868EE73E080E090E00E94E2
S1131D1064150E94E20A812F6BC20E944F0A182F99
S1131D208130B1F40E9416060E944A0464EF71E007
S1131D3080E090E00E9464150E94AF0868EE73E0B2
S1131D4080E090E00E9464150E94E20A812F50C254
S1131D50EAE0F3E082813181208190E08053984F62
S1131D609F938F931F923F931F922F9386EE91E040
S1131D709F938F938FE195E09F938F930E94FB2114
S1131D80809109030FB6F894DEBF0FBECDBF811159
S1131D9018C0E6E0F3E0918180811F929F931F9227
S1131DA08F9385EF91E09F938F938EE595E09F93BA
S1131DB08F930E94FB210FB6F894DEBF0FBECDBFF8
S1131DC017C0E6E0F3E0918180811F929F931F92F8
S1131DD08F9384E092E09F938F938EE595E09F9399
S1131DE08F930E94FB210FB6F894DEBF0FBECDBFC8
S1131DF08EE595E09F938F938FE195E09F938F936A
S1131E0083E192E09F938F93CE0101967C019F938F
S1131E108F930E94FB21C7010E944E040FB6F894D1
S1131E20DEBF0FBECDBF91E0CCC10E94A3068823C4
S1131E3009F10E94E807182F8130B1F40E941606B8
S1131E400E944A0464EF71E080E090E00E9464150F
S1131E500E94AF0868EE73E080E090E00E94641591
S1131E600E94E20A812FC4C189E192E00E944E04DB
S1131E7091E0A7C10E948D068823E1F00E94D1055C
S1131E80182F813009F090C10E9416060E944A045E
S1131E9064EF71E080E090E00E9464150E94AF0856
S1131EA068EE73E080E090E00E9464150E94E20A0C
S1131EB0812F9EC10E94CF06882309F445C0CE011C
S1131EC001960E94331C882309F470C1CE01019647
S1131ED00E946507182F8130B1F40E9416060E94F3
S1131EE04A0464EF71E080E090E00E9464150E946F
S1131EF0AF0868EE73E080E090E00E9464150E94F1
S1131F00E20A812F75C10E94700D182F8130B1F43F
S1131F100E9416060E944A0464EF71E080E090E09B
S1131F200E9464150E94AF0868EE73E080E090E0C0
S1131F300E9464150E94E20A812F5AC183E392E051
S1131F400E944E0491E03DC10E94E5068823B1F150
S1131F508E010F5F1F4FC8010E94491C1F930F93EE
S1131F6088E492E09F938F9380E495E09F938F930E
S1131F700E94FB2180E495E00E946E07182F0F90C9
S1131F800F900F900F900F900F90813009F010C1B7
S1131F900E9416060E944A0464EF71E080E090E01B
S1131FA00E9464150E94AF0868EE73E080E090E040
S1131FB00E9464150E94E20A812F1AC10E94FB0646
S1131FC08823D9F18E010F5F1F4FC8010E94601C46
S1131FD01F930F9388E492E09F938F9384E195E09D
S1131FE09F938F930E94FB2184E195E00E947707E1
S1131FF0182F0F900F900F900F900F900F9081302B
S1132000B1F40E9416060E944A0464EF71E080E075
S113201090E00E9464150E94AF0868EE73E080E0CF
S113202090E00E9464150E94E20A812FE1C08DE4D1
S113203092E00E944E0491E0C4C00E9411078823DC
S113204039F1CE0101960E94771C882309F4B2C0AD
S113205081E08983CE0101960E945C07182F8130AC
S113206009F0AAC00E9416060E944A0464EF71E0B7
S113207080E090E00E9464150E94AF0868EE73E06F
S113208080E090E00E9464150E94E20A812FB0C0B3
S11320900E942707882399F1CE0101960E94841C8F
S11320A0882309F48BC0CE0101960E945307182F90
S11320B08130B1F40E9416060E944A0464EF71E074
S11320C080E090E00E9464150E94AF0868EE73E01F
S11320D080E090E00E9464150E94E20A812F88C08B
S11320E08981813031F486E692E00E944E0491E0C9
S11320F068C08AE792E00E944E0491E062C00E94A8
S11321003D07882309F44AC0CE0101960E948F1C22
S1132110882309F455C04B816A8189810E94731612
S1132120182F8130B1F40E9416060E944A0464EF0D
S113213071E080E090E00E9464150E94AF0868EEB0
S113214073E080E090E00E9464150E94E20A812F0F
S11321504FC02E816D8140E08C810E94AF15182FF5
S11321608130B1F40E9416060E944A0464EF71E0C3
S113217080E090E00E9464150E94AF0868EE73E06E
S113218080E090E00E9464150E94E20A812F30C032
S113219081E992E00E944E0491E013C00E94B906C6
S11321A090E00FC091E00DC091E00BC091E009C038
S11321B091E007C091E005C091E003C091E001C047
S11321C091E09111E2CC0E9416060E944A0464EF49
S11321D071E080E090E00E9464150E94AF0868EE10
S11321E073E080E090E00E9464150E94E20A812F6F
S11321F06E960FB6F894DEBF0FBECDBFDF91CF91C0
S11322001F910F91FF90EF900895CF930E94C80AF9
S11322100E94AB0868EE73E080E090E00E946415D1
S11322200E9486158130E9F044E161E081E00E947A
S113223073168130B1F020E040E06BE38BE00E9444
S1132240AF15813071F00E94700DC82F0E94AF0845
S113225068EE73E080E090E00E9464150E94E20A58
S11322608C2FCF910895E1ECF0E08081877F80830B
S1132270E9ECF0E08081877F808380818F7E80839A
S1132280EAE7F0E080818F778083ECE7F0E08081FB
S11322908F7380830895E1ECF0E08081886080830F
S11322A0E9ECF0E0808188608083808180618083B4
S11322B0EAE7F0E0808180688083ECE7F0E08081E9
S11322C0806C808308950E94A30A0E9405110E94D5
S11322D067080E947E0883B7817F846083BF83B7C9
S11322E0816083BF0E94331188950E944B118091B5
S11322F01103823029F0833091F0813099F71EC0A8
S11323000E9485080E946E080E94010CF8941092A5
S1132310110378940E9467080E947E08E3CF0E940C
S113232085080E946E080E94A00DF8941092110373
S113233078940E9467080E947E08D4CF0E946E0899
S11323400E9485080E94910CF894109211037894CD
S11323500E947E080E946708C5CF1F920F920FB695
S11323600F9211244F935F936F937F938F939F9357
S1132370AF93BF93809112039091130390FD31C0EA
S11323808091140390911503A0911603B091170343
S11323900196A11DB11D8093140390931503A0937E
S11323A01603B093170340911403509115036091E1
S11323B01603709117038091180390911903A0914B
S11323C01A03B0911B03481759076A077B0748F0A3
S11323D0809112039091130391609093130380935F
S11323E01203BF91AF919F918F917F916F915F91F4
S11323F04F910F900FBE0F901F9018951F920F9240
S11324000FB60F9211242F933F934F935F936F93C3
S11324107F938F939F93AF93BF93EF93FF93809199
S11324200F039091100301969093100380930F0370
S1132430C29778F01092100310920F030E94B91DF6
S113244080911203909113038460909313038093FB
S11324501203FF91EF91BF91AF919F918F917F9163
S11324606F915F914F913F912F910F900FBE0F90FD
S11324701F9018951F920F920FB60F9211242F934D
S11324803F934F935F936F937F938F939F93AF93F8
S1132490BF93CF93EF93FF93C091C6008C2F0E94FC
S11324A0991B80910E03811106C0CD30F9F48F5F22
S11324B080930E031BC0813049F4CA3021F48F5F2E
S11324C080930E0313C010920E0310C0CA3061F43F
S11324D0809112039091130392609093130380935D
S11324E0120310920E0302C010920E03FF91EF919B
S11324F0CF91BF91AF919F918F917F916F915F9198
S11325004F913F912F910F900FBE0F901F901895F0
S11325101F920F920FB60F9211242F933F934F9354
S11325205F936F937F938F939F93AF93BF93CF9357
S1132530EF93FF93C091CE008C2F0E94991B809142
S11325400D03811106C0CD30F9F48F5F80930D0324
S11325501BC0813049F4CA3021F48F5F80930D038E
S113256013C010920D0310C0CA3061F4809112039D
S11325709091130394609093130380931203109229
S11325800D0302C010920D03FF91EF91CF91BF9103
S1132590AF919F918F917F916F915F914F913F91F7
S11325A02F910F900FBE0F901F9018951F920F92AE
S11325B00FB60F9211248F934C9904C083E080933B
S11325C0110303C082E0809311034A9BFECF8F91D5
S11325D00F900FBE0F901F9018951F920F920FB679
S11325E00F9211248F9381E0809311034B9BFECFB4
S11325F08F910F900FBE0F901F901895EF92FF923E
S11326000F931F93CF93DF93082FC62FD72F142F29
S113261079010E945A1960E0802F0E946F198D2F52
S11326200E949D198C2F0E949D19D82FC0E00AC0CA
S1132630F701EC0FF11D80810E949D19D82F813084
S113264019F0CF5FC117A0F30E94E6198FE097E25B
S11326500197F1F700C000008D2FDF91CF911F91FA
S11326600F91FF90EF9008950F931F93CF93DF93F3
S1132670082FC62FD72F142F0E945A1960E0802FDD
S11326800E946F198D2F0E949D198C2F0E949D19F5
S1132690D82FC0E007C080E00E949D19D82F813058
S11326A019F0CF5FC117B8F30E94E6198FE097E2E3
S11326B00197F1F700C000008D2FDF91CF911F919A
S11326C00F910895EF92FF920F931F93CF93DF938F
S11326D000D0CDB7DEB7182F042F790179836A8330
S11326E0AE014F5F5F4F62E00E94EA19A701602FBD
S11326F0812F0E94191AEFE0F7E23197F1F700C039
S113270000000F900F90DF91CF911F910F91FF90D8
S1132710EF9008957F928F929F92AF92BF92CF9243
S1132720DF92EF92FF920F931F93CF93DF93782E54
S11327307B016901CB018F739927009729F0C0E4CD
S1132740D0E0C81BD90B02C0C0E0D0E04C175D0735
S113275008F4EA014C1B5D0B79F05A010024AA0C21
S1132760BB1C001CAA0CBB1C001CAB2CB02C4A01CB
S11327708FE38822992404C0A12CB12C812C912CA4
S1132780209769F096014C2FB701872D0E94FE1205
S1132790813069F1CC0EDD1EEC0EFD1E01C080E01F
S11327A0C0E0D0E000E010E010C096012C0F3D1F07
S11327B0BE016E0D7F1D40E4872D0E94FE12C05C99
S11327C0DF4F813029F00F5F1F4F0A151B0568F397
S11327D0813069F096012C0F3D1FBE016E0D7F1DE7
S11327E08114910421F0482D872D0E94FE12DF915F
S11327F0CF911F910F91FF90EF90DF90CF90BF90FA
S1132800AF909F908F907F9008959F92AF92BF92C8
S1132810CF92DF92EF92FF920F931F93CF93DF93A8
S1132820982E7B01CB018F739927009729F0C0E480
S1132830D0E0C81BD90B02C0C0E0D0E0C417D50754
S113284008F0EA014C1B5D0B79F06A010024CC0C02
S1132850DD1C001CCC0CDD1C001CCD2CD02C5A0122
S11328608FE3A822BB2404C0C12CD12CA12CB12CF1
S1132870209751F04C2FB701892D0E9434138130D9
S113288029F1EC0EFD1E01C080E0C0E0D0E000E0C4
S113289010E00DC0BE016E0D7F1D40E4892D0E9425
S11328A03413C05CDF4F813029F00F5F1F4F0C15CC
S11328B01D0580F3813051F0BE016E0D7F1DA11402
S11328C0B10421F04A2D892D0E943413DF91CF9158
S11328D01F910F91FF90EF90DF90CF90BF90AF903A
S11328E09F9008957F928F929F92AF92BF92CF92C2
S11328F0DF92EF92FF920F931F93CF93DF93782E83
S11329007B016901CB018F739927009729F0C0E4FB
S1132910D0E0C81BD90B02C0C0E0D0E0C417D50773
S113292008F0EA014C1B5D0B79F05A010024AA0C53
S1132930BB1C001CAA0CBB1C001CAB2CB02C4A01F9
S11329408FE38822992404C0A12CB12C812C912CD2
S1132950209769F096014C2FB701872D0E946213CE
S1132960813069F1CC0EDD1EEC0EFD1E01C080E04D
S1132970C0E0D0E000E010E010C096012C0F3D1F35
S1132980BE016E0D7F1D40E4872D0E946213C05C62
S1132990DF4F813029F00F5F1F4F0A151B0568F3C5
S11329A0813069F096012C0F3D1FBE016E0D7F1D15
S11329B08114910421F0482D872D0E946213DF9128
S11329C0CF911F910F91FF90EF90DF90CF90BF9028
S11329D0AF909F908F907F900895CF93DF93DC0109
S11329E0CCE7D0E018822BE730E0F9011082EAE767
S11329F0F0E0108280818068808390818C91892BA3
S1132A008083488111969C91119750E4959FC00151
S1132A101124842B8883988112968C911297877045
S1132A20892B8883408113969C911397C0E29C9FC5
S1132A30C0011124842B8083E901988114968C9120
S1132A401497892B8883908115968C91892B808388
S1132A5080818064808380917A0084FFFCCFEAE7E0
S1132A60F0E0808180618083DF91CF910895CF93DE
S1132A70DF93CDB7DEB728970FB6F894DEBF0FBE4D
S1132A80CDBF98E0E9E0F1E0DE01119601900D92EE
S1132A909A95E1F78770E1E0F0E0EC0FFD1FE80F95
S1132AA0F11D8081ECE7F0E09081987F9083908124
S1132AB08770892B808328960FB6F894DEBF0FBEEB
S1132AC0CDBFDF91CF9108956093180370931903DC
S1132AD080931A0390931B0310921403109215030E
S1132AE01092160310921703F89480911203909198
S1132AF013039E7F90931303809312037894809121
S1132B0012039091130390FFFACF0895CF93DF93AC
S1132B101F92CDB7DEB7198210923A034AE353E00D
S1132B2061E088E60E94EA198130A9F0AE014F5FA6
S1132B305F4F61E088E60E94191A813061F0898153
S1132B4088608983EAE3F3E010828183AF0162E065
S1132B5088E60E94EA190F90DF91CF910895CF93F0
S1132B609DEC899FC12D11245C2F56955695569541
S1132B70550F352F330F330F530F851B582F699F74
S1132B80312D1124732F769576957695872F880F9E
S1132B90A82FAA0FAA0F8A0F762F781B632F66958A
S1132BA066956695699F312D11243695369536952F
S1132BB0330F832F880F880F380F631B362F499FDD
S1132BC0A12D11246A2F669566956695862F880F28
S1132BD0682F660F660F860F642F681B4A2F469571
S1132BE046954695499F912D1124969596959695CF
S1132BF0990F892F880F880F980F491B942FAAE3E8
S1132C00B3E083E08C9340E1949FC0011124862BB0
S1132C1011968C93119740E1349FC0011124872BA6
S1132C2012968C93129780E2289F90011124C3FB83
S1132C30EE27E0F9F0E0E295F295F07FFE27E07FE1
S1132C40FE27E22BE52B1396EC931397AD0164E07A
S1132C5088E60E94EA19CF91089583E080933A03AD
S1132C604AE353E061E088E60E94EA198130D1F139
S1132C704CE153E063E088E60E94191A813091F137
S1132C80ACE1B3E02C91322F3F70922F92959F705C
S1132C909770E6E7F5E0990F292F220F220F920F84
S1132CA0930F928311969C911197292F2F709295CF
S1132CB09F70990F392F330F330F930F920F918316
S1132CC012969C91392F3F7094FB222720F9220FF2
S1132CD0422F440F440F240F230F208395FB992781
S1132CE090F9938308950F931F93CF93DF93582FF5
S1132CF02DEC429F912D1124D92FD695D695D6959A
S1132D00DD0F3D2F330F330FD30F4D1BD42F96956B
S1132D1096959695929F812D1124C82FC695C69598
S1132D20C695CC0F3C2F330F330FC30F9C1BC92FF9
S1132D30629F912D1124192F169516951695110F32
S1132D40312F330F330F130F611B162F9695969562
S1132D509695929F812D1124082F06950695069528
S1132D60000F302F330F330F030F901B092F529F87
S1132D70912D1124392F369536953695330F432FDF
S1132D80440F440F340F531B969596959695929F36
S1132D90212D1124269526952695220F822F880F02
S1132DA0880F280F921B9370EAE3F3E086E0808398
S1132DB020E1929FC0011124852B8183AF0162E041
S1132DC088E60E94EA198130A9F0EAE3F3E088E09A
S1132DD0808320E1029FC0011124812B818320E1A3
S1132DE0C29FC00111248D2B8283AF0163E088E66A
S1132DF00E94EA19DF91CF911F910F91089586E007
S1132E0080933A034AE353E061E088E60E94EA19BA
S1132E10813009F445C04CE153E061E088E60E944A
S1132E20191A8130E9F188E080933A034AE353E0C8
S1132E3061E088E60E94EA19813091F14DE153E0A6
S1132E4062E088E60E94191AACE1B3E09C91292F54
S1132E502F7092959F709370EAE7F5E0990F392FE0
S1132E60330F330F930F920F908311969C91119708
S1132E70292F2F7092959170990F392F330F330F9B
S1132E80930F920F918312969C91292F2F709295F4
S1132E909F70990F392F330F330F930F920F928333
S1132EA00895FC01A6E7B5E08C91808311968C917E
S1132EB01197818312968C911297828313968C9129
S1132EC083830895FC01AAE7B5E08C918083119671
S1132ED08C911197818312968C9182830895EAE3F1
S1132EE0F3E091E190838183AF0162E088E60E9480
S1132EF0EA190895CF93DF931F92CDB7DEB71982F5
S1132F008FE080933A034AE353E061E088E60E944D
S1132F10EA198130B9F0AE014F5F5F4F61E088E696
S1132F200E94191A813071F089818B7F82688983AC
S1132F30EAE3F3E09FE090838183AF0162E088E6F7
S1132F400E94EA190F90DF91CF910895CF93DF93F8
S1132F501F92CDB7DEB719828FE080933A034AE31C
S1132F6053E061E088E60E94EA198130B1F0AE01D5
S1132F704F5F5F4F61E088E60E94191A813069F063
S1132F808981897F8983EAE3F3E09FE090838183E9
S1132F90AF0162E088E60E94EA190F90DF91CF91B9
S1132FA00895CF93DF931F92CDB7DEB7198281E0E6
S1132FB080933A034AE353E061E088E60E94EA1909
S1132FC08130B1F0AE014F5F5F4F61E088E60E944F
S1132FD0191A813069F0898182608983EAE3F3E018
S1132FE091E090838183AF0162E088E60E94EA1950
S1132FF00F90DF91CF910895CF93DF931F92CDB7B8
S1133000DEB7198281E080933A034AE353E061E03A
S113301088E60E94EA198130B1F0AE014F5F5F4F3C
S113302061E088E60E94191A813069F089818D7FF8
S11330308983EAE3F3E091E090838183AF0162E066
S113304088E60E94EA190F90DF91CF910895CF93FB
S1133050DF931F92CDB7DEB7198281E080933A03E4
S11330604AE353E061E088E60E94EA198130B1F056
S1133070AE014F5F5F4F61E088E60E94191A81300C
S113308069F089818F7B8983EAE3F3E091E090839F
S11330908183AF0162E088E60E94EA190F90DF9114
S11330A0CF910895EAE3F3E090E190838183AF0147
S11330B062E088E60E94EA1908951F93CF93DF9394
S11330C01F92CDB7DEB7182F19828FE080933A0391
S11330D04AE353E061E088E60E94EA19813009F18D
S11330E0AE014F5F5F4F61E088E60E94191A81309C
S11330F0C1F08981282F277C1770812F90E0880FD9
S1133100991F880F991F880F991F822B8983EAE3DF
S1133110F3E09FE090838183AF0162E088E60E9440
S1133120EA190F90DF91CF911F910895FC0114BC0F
S113313015BCAEE6B0E01C92808187BD818188BD5C
S113314095B582818770892B85BD25B59381892F9B
S113315090E0880F991F8870822B85BD94B5838178
S11331608370892B84BD24B5948130E4939FC0017E
S11331701124822B84BD24B5958130E1939FC00135
S11331801124822B84BD9C918681892B8C93089574
S1133190CF93DF93FC0160E870E0DB011C92A1E8AF
S11331A0B0E01C922FE630E0E90118828081918121
S11331B090938900809388008281938190938B00FF
S11331C080938A0084819581909387008093860000
S11331D09C9186818770892B8C934C919781892F40
S11331E090E0880F991F8871842B8C93EB01988150
S11331F087818370892B888348819085D0E49D9F43
S1133200C0011124842BEB01888348819185D0E18E
S11332109D9FC0011124842BEB0188834C919285DE
S1133220D0E89D9FC0011124842B8C934C919385ED
S113323050E4959FC0011124842B8C93D9019C9157
S11332408485892B8C93DF91CF910895CF93DF935D
S1133250FC0128EB30E0D9011C9289EB90E0DC0101
S11332601C92CAEBD0E018826DEB70E0DB011C927B
S11332704081D9014C93DC013C9123812370232BA1
S11332802C9388819281292F30E0220F331F282B21
S11332902883DB012C919181892F90E0880F991F5D
S11332A0822B8C93E4E6F0E080818F778083DF913A
S11332B0CF91089584EA8093BC008091BC00882358
S11332C0E4F78091B900887F883039F08091B900A3
S11332D0887F8093580381E0089580E008956130E9
S11332E039F490E0880F991F81608093BB0005C07A
S11332F090E0880F991F8093BB0084E88093BC0002
S11333008091BC008823E4F7613061F48091B900B6
S1133310887F803471F08091B900887F809358034E
S113332081E008958091B900887F883121F480E09C
S1133330089580E0089581E008958093BB0084E8B7
S11333408093BC008091BC008823E4F78091B9008D
S1133350887F883239F08091B900887F8093580340
S113336081E0089580E00895FC0184EC8093BC0022
S11333709091BC009923E4F79091B900987F90351F
S113338039F09091B900987F9093580381E001C07F
S113339080E09091BB0090830895FC0184E88093C1
S11333A0BC009091BC009923E4F79091B900987FF8
S11333B0983539F09091B900987F9093580381E043
S11333C001C080E09091BB009083089584E98093CC
S11333D0BC000895EF92FF921F93CF93DF93C82F01
S11333E0162F7A010E945A198130E9F060E08C2F7F
S11333F00E946F19D82F8130A1F0C0E00AC0F701F4
S1133400EC0FF11D80810E949D19D82F813019F095
S1133410CF5FC117A0F3D13029F00E94E6198D2F98
S113342002C001C08D2FDF91CF911F91FF90EF90CB
S11334300895FF920F931F93CF93DF93C82FF62E17
S11334408A010E945A19813059F161E08C2F0E943F
S11334506F19D82F813011F1C0E018C02C2F30E043
S11334608F2D90E00197281739073CF4C8018C0F81
S1133470911D0E94B419D82F06C0C8018C0F911D4C
S11334800E94CD19D82FD13019F0CF5FCF1530F36A
S1133490D13029F00E94E6198D2F02C001C08D2F72
S11334A0DF91CF911F910F91FF900895CF93DF93F8
S11334B0EC011092C0001092C100E2ECF0E0108226
S11334C080818F73808388818823B1F029813A8138
S11334D04B815C8160E271EA87E090E00E94C22146
S11334E0BA01A9014150510961097109E0ECF0E008
S11334F080818260808315C029813A814B815C81FF
S113350060E970ED83E090E00E94C221BA01A90154
S11335104150510961097109E0ECF0E080818D7F2F
S113352080835093C5004093C400A2ECB0E02C917A
S11335309F819370892F90E0880F991F822B8C9321
S1133540E1ECF0E090818F8186958695892B8083CC
S11335502C919885892F90E0880F991F880F991FC7
S1133560880F991F822B8C932C91998530E1939F1E
S1133570C0011124822B8C9320819D81892F90E09E
S1133580880F991F880F991F880F991F822B80839A
S113359020819E8130E1939FC0011124822B80837E
S11335A090818A85892B8083DF91CF910895CF9371
S11335B0DF93EC011092C8001092C900EAECF0E02D
S11335C0108280818F73808388818823B1F0298160
S11335D03A814B815C8160E271EA87E090E00E946D
S11335E0C221BA01A9014150510961097109E8ECEC
S11335F0F0E080818260808315C029813A814B810B
S11336005C8160E970ED83E090E00E94C221BA0120
S1133610A9014150510961097109E8ECF0E0808188
S11336208D7F80835093CD004093CC00AAECB0E012
S11336302C919F819370892F90E0880F991F822B82
S11336408C93E9ECF0E090818F8186958695892BA7
S113365080832C919885892F90E0880F991F880F7B
S1133660991F880F991F822B8C932C91998530E197
S1133670939FC0011124822B8C9320819D81892FDB
S113368090E0880F991F880F991F880F991F822B2C
S1133690808320819E8130E1939FC0011124822B7D
S11336A0808390818A85892B8083DF91CF910895CF
S11336B0882319F0813041F008958091C00085FF7E
S11336C0FCCF6093C60008958091C80085FFFCCFAD
S11336D06093CE0008951F93CF93DF93182FEB01CF
S11336E004C0812F0E94581B219668816111F9CF73
S11336F0DF91CF911F9108951092590308C0E82FCC
S1133700F0E0E358FA4F10828F5F80935903809161
S113371059038832A0F310925903089580E006C03B
S1133720E82FF0E0EB55FA4F10828F5F8832C0F338
S1133730089590915903E92FF0E0E358FA4F8083FC
S11337409F5F90935903983210F010925903089593
S113375020E005C0FC01EB55FA4F30832F5F822F28
S113376090E0FC01E358FA4F30813111F3CF089512
S1133770FC01409318035093190360931A03709348
S11337801B03109214031092150310921603109247
S11337901703F8949C012095309580911203909121
S11337A01303822393239093130380931203809132
S11337B01203909113039E7F90931303809312033B
S11337C0789440E050E020E030E00CC020911203F7
S11337D0309113032E233F2340911203509113037E
S11337E0442751702115310511F4452B79F3232B0E
S11337F011F081E001C080E0F8942091120330912F
S11338001303E22BF32BF0931303E09312032091A1
S11338101203309113033160309313032093120386
S113382078940895BC0185EA95E00E94EB21892BE8
S113383011F080E0089581E00895BC0190E081E0FA
S113384007C0F901EB55FA4F2081421380E09F5FD6
S1133850813041F4292F30E0FB01E20FF31F408156
S11338604111EFCF0895DC01E5EAF5E0938590532B
S113387024852053990F392F330F330F930F920F51
S11338802FEF290F2A3018F49C9381E0089580E0EB
S11338900895CF93DF93DC0190E00BC0292F30E033
S11338A0FD01E20FF31FE901C155DA4F288120839E
S11338B09F5F983098F317961C92DF91CF910895EB
S11338C0CF93DF93DC0190E00BC0292F30E0FD01A2
S11338D0E20FF31FE901C155DA4F288120839F5F6E
S11338E0993098F318961C92DF91CF910895FC01BA
S11338F09091B2052FEC290F223020F4905390833D
S113390081E0089580E00895FC019091AF05905303
S1133910923018F4908381E0089580E00895FF9236
S11339200F931F93CF93DF93FC01A5EAB5E01D9697
S11339304C911D9740531F968C918F3259F4440F2C
S1133940842F880F880F480F8091B305480F405388
S11339502EE001C02DE062E0620F862F90E0DC01D2
S1133960AB55BA4F5C915053DC01A955BA4F8C91B9
S11339708F3271F463E0620FA62FB0E0AB55BA4FFB
S1133980550F852F880F880F580F8C91580F50535F
S1133990A4E0A60FB0E0AB55BA4F2C9130E0205311
S11339A03109220F822F880F880F280FA5E0A60F58
S11339B0B0E0AB55BA4F8C91280F20538FEF840F92
S11339C08F3140F4552341F05D3040F4243640F407
S11339D081E007C080E005C080E003C080E001C052
S11339E080E00F2EF7E0FF2EF02DF60ECF2DD0E065
S11339F08E010B551A4FD8019C919053C955DA4F3B
S1133A0038813A3381F46894FF24F3F8F60ECF2D0D
S1133A10D0E0CB55DA4F990F392F330F330F930F73
S1133A203881930F905362E06F0D70E0EB01CB553A
S1133A30DA4F38813053EB01C955DA4F68816E3261
S1133A4069F4A3E0AF0DB0E0AB55BA4F330F632F69
S1133A50660F660F360F6C91360F3053983118F499
S1133A603C3318F403C080E001C080E08823A9F04F
S1133A70992339F09C3040F09D3040F09C5061E037
S1133A8006C060E09CE003C060E001C061E04083E8
S1133A9051832283938334836583DF91CF911F9174
S1133AA00F91FF900895CF93DF93CDB7DEB72D9795
S1133AB00FB6F894DEBF0FBECDBF1F828FE088879C
S1133AC08FE097E29A8389831C821B821E821D8267
S1133AD019861A8682E08D87CE0101960E94C81845
S1133AE02D960FB6F894DEBF0FBECDBFDF91CF91F8
S1133AF008958091120390911303846090931303AB
S1133B00809312038AB180688AB98BB18F778BB99D
S1133B1084B1846084B985B18B7F85B90E94531DBB
S1133B20089590938B0080938A0008958BB18068E8
S1133B308BB9E0E8F0E080818F7E808380818062B1
S1133B4080831092850010928400E1E8F0E0808187
S1133B50887F8083808182608083F89480911203BF
S1133B60909113038B7F90931303809312037894A3
S1133B700895E1E8F0E08081887F808310928500D9
S1133B801092840085B18B7F85B9E0E8F0E08081F4
S1133B908F7C80838BB18F778BB980911203909146
S1133BA013038460909313038093120308958BB1DD
S1133BB080688BB908958BB18F778BB90895CF93B3
S1133BC0DF93CDB7DEB72B970FB6F894DEBF0FBEE9
S1133BD0CDBF80E096E9A0E0B0E08A839B83AC830C
S1133BE0BD8383E088871A86198681E089838E8362
S1133BF01F821B86CE0101960E94561A2B960FB681
S1133C00F894DEBF0FBECDBFDF91CF9108958AB186
S1133C1080628AB98BB18F7D8BB90E94DF1D0895B4
S1133C20EF92FF920F931F93CF93DF93EC0105E084
S1133C3016E08BE7F801808360E273E086E096E0AB
S1133C400E94E4210F2EFAE3FF2EF02DF801F38AEF
S1133C506881798189E196E00E94F421E881F98103
S1133C60DF010D900020E9F711978D010E1B1F0B4A
S1133C70F801E75EF94F0F2EFCE2EF2EF02DE08203
S1133C8060E173E0C801865E994F0E94E421F80167
S1133C90E75DF94FF0820B5D1F4F6A817B81C8019C
S1133CA08B5F994F0E94F421AA81BB81FD01019091
S1133CB00020E9F73197EA1BFB0B0E0F1F1FF801D9
S1133CC0EB5FF94FE08260EF72E0C8018A5F994FC1
S1133CD00E94E421F801EB5DF94FF0820F5D1F4F64
S1133CE06C817D81C8018B5F994F0E94F421AC8166
S1133CF0BD81FD0101900020E9F73197EA1BFB0B20
S1133D000E0F1F1FF801EB5FF94FE0826FED72E0B9
S1133D10C8018A5F994F0E94E421F801EA5EF94FD5
S1133D20F0820E5E1F4F6E817F81C8018B5F994FB9
S1133D300E94F421AE81BF81FD0101900020E9F7CA
S1133D403197EA1BFB0B0E0F1F1FF801EB5FF94FB6
S1133D50E08263EC72E0C8018A5F994F0E94E4211B
S1133D60F801EF5DF94FF082035E1F4F6885798596
S1133D70C8018B5F994F0E94F421A885B985FD0184
S1133D8001900020E9F73197EA1BFB0B0E0F1F1F70
S1133D90F801EB5FF94FE08262EA72E0C8018A5FE2
S1133DA0994F0E94E421F801EA5DF94FF0820E5D1B
S1133DB01F4F6A857B85C8018B5F994F0E94F42150
S1133DC0AA85BB85FD0101900020E9F73197EA1B24
S1133DD0FB0B0E0F1F1FF801EB5FF94FE0826DE83C
S1133DE072E0C8018A5F994F0E94E421F801E65EFF
S1133DF0F94FF0820A5E1F4F6C857D85C8018B5F89
S1133E00994F0E94F421AC85BD85FD0101900020ED
S1133E10E9F73197EA1BFB0B0E0F1F1FF801EB5F4D
S1133E20F94FE0826AE772E0C8018A5F994F0E9405
S1133E30E421F801E85EF94FF0820C5E1F4F6E85B5
S1133E407F85C8018B5F994F0E94F421AE85BF85A1
S1133E50FD0101900020E9F73197EA1BFB0B0E0FDF
S1133E601F1FF801EB5FF94FE08267E672E0C801BB
S1133E708A5F994F0E94E421F801E85EF94FF082CD
S1133E800C5E1F4F68897989C8018B5F994F0E9426
S1133E90F421E889F989DF010D900020E9F71197F1
S1133EA0AE1BBF0B0A0F1B1FF801EB5FF94FE0823B
S1133EB064E572E0C8018A5F994F0E94E421F80129
S1133EC0E85EF94FF0820C5E1F4F6A897B89C80156
S1133ED08B5F994F0E94F421EA89FB89DF010D90E1
S1133EE00020E9F71197AE1BBF0B0A0F1B1FD80167
S1133EF0AB5FB94F85E0EDE4F1E001900D928A9556
S1133F00E1F7DF91CF911F910F91FF90EF9008950A
S1133F1085E096E008955058BB27AA270E94A31F66
S1133F200C9416210E94082138F00E940F2120F0E1
S1133F3039F49F3F19F426F40C9405210EF4E0950E
S1133F40E7FB0C94FF20E92F0E94272158F3BA17AE
S1133F50620773078407950720F079F4A6F50C949B
S1133F6049210EF4E0950B2EBA2FA02D0B01B901B7
S1133F7090010C01CA01A0011124FF27591B99F0DB
S1133F80593F50F4503E68F11A16F040A22F232FE7
S1133F90342F4427585FF3CF469537952795A79537
S1133FA0F0405395C9F77EF41F16BA0B620B730BDE
S1133FB0840BBAF09150A1F0FF0FBB1F661F771F4F
S1133FC0881FC2F70EC0BA0F621F731F841F48F404
S1133FD0879577956795B795F7959E3F08F0B0CF8D
S1133FE09395880F08F09927EE0F97958795089574
S1133FF00E94DB2008F481E008950E9411200C94B3
S113400016210E940F2158F00E94082140F029F443
S11340105F3F29F00C94FF2051110C944A210C9419
S113402005210E94272168F39923B1F3552391F3C5
S1134030951B550BBB27AA2762177307840738F013
S11340409F5F5F4F220F331F441FAA1FA9F335D070
S11340500E2E3AF0E0E832D091505040E695001C24
S1134060CAF72BD0FE2F29D0660F771F881FBB1FDE
S1134070261737074807AB07B0E809F0BB0B802DBC
S1134080BF01FF2793585F4F3AF09E3F510578F0E8
S11340900C94FF200C944A215F3FE4F3983ED4F340
S11340A0869577956795B795F7959F5FC9F7880FBC
S11340B0911D9695879597F90895E1E0660F771F0E
S11340C0881FBB1F621773078407BA0720F0621B9F
S11340D0730B840BBA0BEE1F88F7E09508950E94CA
S11340E02F2188F09F5798F0B92F9927B751B0F036
S11340F0E1F0660F771F881F991F1AF0BA95C9F768
S113410014C0B13091F00E944921B1E008950C949B
S11341104921672F782F8827B85F39F0B93FCCF34E
S1134120869577956795B395D9F73EF490958095E4
S1134130709561957F4F8F4F9F4F0895E89409C004
S113414097FB3EF490958095709561957F4F8F4FC6
S11341509F4F9923A9F0F92F96E9BB279395F695DC
S1134160879577956795B795F111F8CFFAF4BB0F5A
S113417011F460FF1BC06F5F7F4F8F4F9F4F16C0BE
S1134180882311F096E911C0772321F09EE8872F48
S1134190762F05C0662371F096E8862F70E060E004
S11341A02AF09A95660F771F881FDAF7880F96957D
S11341B0879597F90895990F0008550FAA0BE0E821
S11341C0FEEF16161706E807F907C0F012161306D5
S11341D0E407F50798F0621B730B840B950B39F415
S11341E00A2661F0232B242B252B21F408950A267B
S11341F009F4A140A6958FEF811D811D089597F9BB
S11342009F6780E870E060E008959FEF80EC089578
S113421000240A94161617061806090608950024A1
S11342200A9412161306140605060895092E03941B
S1134230000C11F4882352F0BB0F40F4BF2B11F48F
S113424060FF04C06F5F7F4F8F4F9F4F089557FDEE
S11342509058440F551F59F05F3F71F04795880FF0
S113426097FB991F61F09F3F79F087950895121687
S113427013061406551FF2CF4695F1DF08C0161633
S113428017061806991FF1CF8695710561050894E4
S11342900895E894BB2766277727CB0197F90895FB
S11342A00E94DB2008F48FEF08950E9468210C948B
S11342B016210E94082138F00E940F2120F0952336
S11342C011F00C94FF200C94052111240C944A2124
S11342D00E94272170F3959FC1F3950F50E0551F5D
S11342E0629FF001729FBB27F00DB11D639FAA2747
S11342F0F00DB11DAA1F649F6627B00DA11D661F96
S1134300829F2227B00DA11D621F739FB00DA11DB6
S1134310621F839FA00D611D221F749F3327A00D70
S1134320611D231F849F600D211D822F762F6A2F0C
S113433011249F5750409AF0F1F088234AF0EE0F71
S1134340FF1FBB1F661F771F881F91505040A9F79E
S11343509E3F510580F00C94FF200C944A215F3F4E
S1134360E4F3983ED4F3869577956795B795F795DA
S1134370E7959F5FC1F7FE2B880F911D9695879552
S113438097F90895A1E21A2EAA1BBB1BFD010DC0CB
S1134390AA1FBB1FEE1FFF1FA217B307E407F507F1
S11343A020F0A21BB30BE40BF50B661F771F881FCD
S11343B0991F1A9469F760957095809590959B0163
S11343C0AC01BD01CF010895FB01DC0105900D9204
S11343D00020E1F70895FB01DC018D910190801923
S11343E00110D9F3990B0895FB01DC0101900D92A2
S11343F00020E1F70895AEE0B0E0E1E0F2E20C94D1
S1134400BC240D891E8986E08C831A8309838FEF6F
S11344109FE79E838D83AE01475E5F4F6F89788DE2
S1134420CE0101960E941D22EF81F885E00FF11F55
S113443010822E96E4E00C94D824ABE0B0E0E3E2E2
S1134440F2E20C94AE246C017B018A01FC01178218
S11344501682838181FFCCC1CE0101963C01F60115
S11344609381F70193FD859193FF81917F018823C7
S113447009F4BAC1853239F493FD859193FF819192
S11344807F01853229F4B60190E00E941424E7CF1D
S1134490912C212C312CFFE1F315D8F08B3279F0DB
S11344A038F4803279F08332A1F4232D20611DC0C9
S11344B08D3261F0803369F4232D216016C0832D81
S11344C08260382EE32DE4603E2E2AC0F32DF8607E
S11344D01DC037FC2DC020ED280F2A3040F08E324D
S11344E0B9F436FC81C1232D2064322E19C036FE66
S11344F006C08AE0989E200D1124922E11C0EAE095
S11345002E9E200D1124222EF32DF0623F2E08C082
S11345108C3621F4832D8068382E02C0883641F40D
S1134520F70193FD859193FF81917F018111B3CFB1
S1134530982F9F7D9554933028F40C5F1F4F9FE371
S113454099830DC0833631F0833771F0833509F0D8
S113455059C021C0F801808189830E5F1F4F8824D0
S11345608394912C530113C02801F2E04F0E511C87
S1134570F801A080B18036FE03C0692D70E002C04E
S11345806FEF7FEFC5010E9409244C018201F32DD6
S1134590FF773F2E16C0280122E0420E511CF8017D
S11345A0A080B18036FE03C0692D70E002C06FEFB9
S11345B07FEFC5010E94FE234C01F32DF0683F2ECE
S11345C0820133FC1BC0822D90E088169906B0F45A
S11345D0B60180E290E00E9414242A94F4CFF501FD
S11345E037FC859137FE81915F01B60190E00E940E
S11345F0142421102A9421E0821A91088114910430
S113460071F7E8C0843611F0893641F5F80137FEB8
S113461007C060817181828193810C5F1F4F08C044
S113462060817181072E000C880B990B0E5F1F4F60
S1134630F32DFF763F2E97FF09C0909580957095D6
S113464061957F4F8F4F9F4FF0683F2E2AE030E0F7
S1134650A3010E945024882E861845C0853731F462
S1134660232D2F7EB22E2AE030E025C0932D997F92
S1134670B92E8F36C1F018F4883579F0B5C080377B
S113468019F0883721F0B0C0E92FE061BE2EB4FEE6
S11346900DC0FB2DF460BF2E09C034FE0AC0292FC3
S11346A02660B22E06C028E030E005C020E130E0EC
S11346B002C020E132E0F801B7FE07C060817181D9
S11346C0828193810C5F1F4F06C06081718180E0FD
S11346D090E00E5F1F4FA3010E945024882E86187D
S11346E0FB2DFF773F2E36FE0DC0232D2E7FA22EED
S11346F0891458F434FE0BC032FC09C0832D8E7E1D
S1134700A82E05C0B82CA32C03C0B82C01C0B92C0A
S1134710A4FE0FC0FE01E80DF11D8081803321F459
S11347209A2D997EA92E09C0A2FE06C0B394B39413
S113473004C08A2D867809F0B394A3FC11C0A0FEAE
S113474006C0B21488F4280C922C9B180EC0B21424
S113475060F4B60180E290E00E941424B394F7CF91
S1134760B21418F42B1802C0982C212CA4FE10C0EB
S1134770B60180E390E00E941424A2FE17C0A1FCBD
S113478003C088E790E002C088E590E0B6010CC061
S11347908A2D867859F0A1FE02C08BE201C080E226
S11347A0A7FC8DE2B60190E00E941424891438F429
S11347B0B60180E390E00E9414249A94F7CF8A947F
S11347C0F301E80DF11D8081B60190E00E941424EC
S11347D08110F5CF222009F442CEB60180E290E0A8
S11347E00E9414242A94F6CFF6018681978102C090
S11347F08FEF9FEF2B96E2E10C94CA24FC01059005
S1134800615070400110D8F7809590958E0F9F1FCE
S11348100895FC016150704001900110D8F7809513
S113482090958E0F9F1F08950F931F93CF93DF933F
S1134830FB01238121FD03C08FEF9FEF2CC022FFDA
S113484016C046815781248135814217530744F4A9
S1134850A081B1819D012F5F3F4F318320838C93D1
S1134860268137812F5F3F4F3783268314C08B0106
S1134870EC01FB010084F185E02D0995892BE1F61B
S1134880D80116968D919C911797019617969C9333
S11348908E931697CE01DF91CF911F910F910895BA
S11348A0FA01AA27283051F1203181F1E8946F935D
S11348B06E7F6E5F7F4F8F4F9F4FAF4FB1E03ED003
S11348C0B4E03CD0670F781F891F9A1FA11D680FA1
S11348D0791F8A1F911DA11D6A0F711D811D911DD4
S11348E0A11D20D009F468943F912AE0269F112449
S11348F03019305D3193DEF6CF010895462F4770AD
S1134900405D4193B3E00FD0C9F7F6CF462F4F7007
S1134910405D4A3318F0495D31FD4052419302D065
S1134920A9F7EACFB4E0A69597958795779567950B
S1134930BA95C9F700976105710508959B01AC010B
S11349400A2E06945795479537952795BA95C9F732
S1134950620F731F841F951FA01D08952F923F920D
S11349604F925F926F927F928F929F92AF92BF927B
S1134970CF92DF92EF92FF920F931F93CF93DF9327
S1134980CDB7DEB7CA1BDB0B0FB6F894DEBF0FBE84
S1134990CDBF09942A88398848885F846E847D84D1
S11349A08C849B84AA84B984C884DF80EE80FD80D3
S11349B00C811B81AA81B981CE0FD11D0FB6F89449
S11149C0DEBF0FBECDBFED010895F894FFCF0A
S11349CE3B04010204010001010001020304050677
S11349DE0700020641542B4E414D453D25730D0AE9
S11349EE0041542B505357443D25730D0A00415436
S11349FE2B524F4C453D25630D0A0041542B554116
S1134A0E52543D256C752C302C300D0A007D2A2A0B
S1134A1E2A004E6F20686179206461746F73207070
S1134A2E617261206D6F73747261722E0022253073
S1134A3E3264220022253032642F253032642F2531
S1134A4E303464220022253032643A253032642018
S1134A5E612E6D2E220022253032643A25303264C6
S1134A6E20702E6D2E220022256422002225303342
S1134A7E64220022202D20220022202020220050F9
S1134A8E72696D65726120636F6E666967757261B6
S1134A9E63696F6E20636F6D706C657461202E2E6A
S1134AAE2E0A0A0D2000253032642F253032642F51
S1134ABE2530346400253032643A25303264206166
S1134ACE2E6D2E00253032643A2530326420702E3D
S1134ADE6D2E002573202573004D656D6F7269610F
S1134AEE206465206261636B7570206C696D7069FA
S1134AFE612E00506572696F646F20636F6E666914
S1134B0E67757261646F2E0022257322004944205A
S1134B1E7265636570746F7220636F6E6669677514
S1134B2E7261646F2E00496E64696361646F7220F2
S1134B3E616374697661646F2E00496E64696361A2
S1134B4E646F7220646573616374697661646F2E39
S1134B5E004665636861207920686F726120636F17
S1134B6E6E66696775726164612E00656D69736F37
S1134B7E722573616365707461646F0D0A0A006552
S1134B8E6D69736F72257372656368617A61646FA0
S1074B9E0D0A0A00EE
S9030000FC
